:100000000C9462000C948A000C948A000C948A0070
:100010000C948A000C948A000C948A000C948A0038
:100020000C948A000C9451070C948A000C948A005A
:100030000C948A000C948A000C948A000C948A0018
:100040000C94740D0C948A000C948D0E0C948A0000
:100050000C948A000C948A000C948A000C948A00F8
:100060000C948A000C948A000000000024002700F1
:100070002A0000000000250028002B0000000000DE
:1000800023002600290004040404040404040202DA
:100090000202020203030303030301020408102007
:1000A0004080010204081020010204081020000012
:1000B0000007000201000003040600000000000029
:1000C0000000121011241FBECFEFD8E0DEBFCDBF5D
:1000D00011E0A0E0B1E0EEE3FAE202C005900D927B
:1000E000A03EB107D9F712E0A0EEB1E001C01D9229
:1000F000A638B107E1F710E0C4ECD0E004C02297C5
:10010000FE010E94E214C23CD107C9F70E946D0DA6
:100110000C941D150C940000A0E0B0E0E2E9F0E0C2
:100120000C94EE14EC01A880B980CA80DB80A11485
:10013000B104C104D10441F484E2A82E89EDB82EA3
:100140008BE5C82E87E0D82EC601B5012DE133EF2F
:1001500041E050E00E94B11427EA31E440E050E071
:100160000E945D147B018C01C601B5012DE133EFC6
:1001700041E050E00E94B114CA01B9012CEE34EF05
:100180004FEF5FEF0E945D146E0D7F1D801F911F6A
:1001900097FF04C061507040804090486883798325
:1001A0008A839B839B01AC015F77B901CA01CDB7FC
:1001B000DEB7EAE00C940A150E948C00089583E9EA
:1001C00091E00E948C0008956093930170939401D4
:1001D00080939501909396010895CF93DF93DC016E
:1001E000AC52BF4F11967C936E93A45DB040ED016D
:1001F000CA5BDF4F80E090E0FD01E80FF91F10823D
:1002000019921992019686349105B1F7AE52BF4FFB
:1002100085E490E08D939C93DF91CF9108952F9288
:100220003F924F925F926F927F928F929F92AF9286
:10023000BF92CF92DF92EF92FF920F931F931A011A
:100240002B01AA24BB24650120E030E040E050E00F
:100250006624772443012CC084017301E20EF31E4F
:10026000041F151F0894A11CB11CC11CD11CC60180
:10027000B501A80197010E945D1427E030E040E03D
:1002800050E00E948F14C901DA01A8019701281BD0
:10029000390B4A0B5B0B0894A11CB11CC11CD11C6F
:1002A00086E090E0A0E0B0E0680E791E8A1E9B1EFA
:1002B000A214B304C404D50478F2C9011F910F91AC
:1002C000FF90EF90DF90CF90BF90AF909F908F9076
:1002D0007F906F905F904F903F902F9008959B017B
:1002E000AC0160E074E284EF97EC0E94AF1220E072
:1002F00030E840E853E40E94471220E030E040E05C
:100300005FE30E9447120E9417136093E40110926A
:10031000B00025E02093B10021E0209370006093AD
:10032000B20008959093E1018093E00160E070E0F5
:1003300080E097EC0E946F0108952091E0013091D8
:10034000E1012817390731F41092E1011092E00120
:100350001092B10008950F931F938C01DC01ED9171
:10036000FC910190F081E02D0995D801ED91FC916F
:100370000280F381E02DC8010995D801ED91FC912F
:100380000480F581E02DC80109951F910F91089512
:10039000EF92FF920F93FC01522F81EB91E091833A
:1003A000808375836483822F992787FD9095242FFE
:1003B000332727FD3095821B930B1816190614F06E
:1003C0008FEF01C081E08487813019F44683578321
:1003D00002C0568347830087F286E18643871382F3
:1003E00012820F91FF90EF900895DC011496ED9129
:1003F000FC9115971B968C911B97992787FD9095DB
:10040000E80FF91F808119969C91891B80830895BC
:10041000DC011496ED91FC9115971B968C911B971E
:10042000992787FD9095E80FF91F808119969C9177
:10043000890F80830895FC0124858385280F2387F5
:10044000978192172CF48681981B9095920F938731
:100450009385268192172CF48781980F9F5F921BBA
:1004600093870895EF92FF920F93FC0185EA91E044
:1004700091838083758364834683842F8150820FA8
:1004800087830087F286E186438781E08487138231
:1004900012820F91FF90EF900895DC011496ED9178
:1004A000FC9115971B968C911B97992787FD90952A
:1004B000E80FF91F808119969C91891B808308950C
:1004C000DC011496ED91FC9115971B968C911B976E
:1004D000992787FD9095E80FF91F808119969C91C7
:1004E000890F80830895FC0124859385920F93875B
:1004F000878198172CF0880F891B83872195248783
:1005000093858681891734F0880F891B83878485BA
:10051000819584870895CF93DF93EC010AC0E88129
:10052000F9810480F581E02DCE0109950A80DB81F7
:10053000C02D2097A1F7DF91CF910895CF93DF933E
:10054000EC0118C0E881F9810190F081E02DCE0125
:100550000995E881F9810280F381E02DCE010995AA
:10056000E881F9810480F581E02DCE0109950A80AA
:10057000DB81C02D209731F7DF91CF910895CF9384
:10058000DF93EC010AC0E881F9810190F081E02D50
:10059000CE0109950A80DB81C02D2097A1F7DF915C
:1005A000CF9108952F923F924F925F926F927F92D8
:1005B0008F929F92AF92BF92CF92DF92EF92FF9273
:1005C0000F931F93DF93CF9300D000D0CDB7DEB74A
:1005D0009C838B831B01FC01818160E00E94400EA3
:1005E000EB81FC81838160E00E94400EEB81FC8105
:1005F000848160E00E94400E8B819C8141E050E04C
:1006000060E070E00E940F01EB81FC81818161E07C
:100610000E94400E8B819C8141E050E060E070E0E0
:100620000E940F01EB81FC81818160E00E94400EFD
:100630008B819C8140E050E060E070E00E940F01FF
:10064000EB81FC81838161E00E94400EEB81FC81A3
:10065000848161E00E94400E8B819C8140E050E0EB
:1006600060E070E00E940F01EB81FC81818161E01C
:100670000E94400E8B819C8141E050E060E070E080
:100680000E940F01EB81FC81818160E00E94400E9D
:10069000C10104969A838983F101208531854285C1
:1006A000538579018A017DE1EE0CFF1C001F111FAB
:1006B0007A95D1F784819581A681B78163E0B6955B
:1006C000A795979587956A95D1F7E82AF92A0A2B75
:1006D0001B2B59016A0143E0D694C794B794A794A1
:1006E0004A95D1F788249924F0E28F169104E4F416
:1006F000F10180819181A281B38131E0432E512C9F
:1007000048225922B695A79597958795808391831E
:10071000A283B38371E0672E712C6E207F20169523
:100720000795F794E7941CC0E981FA818081918153
:10073000A281B38151E0452E512C48225922B69511
:10074000A7959795879580839183A283B38331E0A2
:10075000632E712C6A207B20D694C794B794A794FB
:100760008B819C8140E050E060E070E00E940F01CE
:10077000EB81FC818381642D0E94400EEB81FC8122
:100780008481662D0E94400E8B819C8140E050E068
:1007900060E070E00E940F01EB81FC81818161E0EB
:1007A0000E94400E8B819C8141E050E060E070E04F
:1007B0000E940F01EB81FC81818160E00E94400E6C
:1007C0000894811C911CF3E28F16910409F08CCFE0
:1007D0000F900F900F900F90CF91DF911F910F917D
:1007E000FF90EF90DF90CF90BF90AF909F908F9051
:1007F0007F906F905F904F903F902F9008953F9221
:100800004F925F926F927F928F929F92AF92BF9220
:10081000CF92DF92EF92FF920F931F93DF93CF93CC
:10082000CDB7DEB728970FB6F894DEBF0FBECDBFA9
:100830007C018B01DC0111968C9160E00E94400EDE
:10084000F701838160E00E94400ED70114968C91DD
:1008500060E00E94400E5BB045B0F701818161E02D
:100860000E94400ED70111968C9160E00E94400ECC
:10087000F701838161E00E94400ED70114968C91AC
:1008800061E00E94400EF701818161E00E94400E0C
:100890003BB0D70111968C9160E00E94400EF801A8
:1008A00040815181628173816480758086809780E8
:1008B000A084B184C284D3845982D70113962C9129
:1008C000283058F481E090E0022E02C0880F991F72
:1008D0000A94E2F785298A8301C05A82D7011496C7
:1008E000EC91E83058F481E090E00E2E02C0880FC1
:1008F000991F0A94E2F785298B8301C05B828B8163
:100900009A81892B85298C834D82283070F0822F23
:1009100090E0089721E030E002C0220F331F8A9553
:10092000E2F7842D822B8E8301C04E82E83070F076
:100930008E2F90E0089721E030E002C0220F331F95
:100940008A95E2F7842D822B8F8301C04F828F819D
:100950009E81892B8429888700E02E010894411C00
:10096000511CE5E0EE2EF12CEC0EFD1E262DE62DA1
:10097000E170EE0F842F8170E80FF0E0D201AE0F2E
:10098000BF1F8C918BB9EE0DFF1D808185B98BB196
:1009900083298BB9DB01CA0182709070A070B0709E
:1009A000B695A795979587952270280F30E0F201AC
:1009B000E20FF31F80818BB92E0D3F1DF90180815D
:1009C00085B98BB183298BB982E076956795579568
:1009D00047958A95D1F712E0969487947794679417
:1009E0001A95D1F70E5F003209F6A6019501B3E022
:1009F0005695479537952795BA95D1F790E07E01A2
:100A00000894E11CF11CBE016B5F7F4FE22FE17087
:100A1000EE0F8A2D8170E80FD694C794B794A794EF
:100A20005695479537952795F0E0D701AE0FBF1F34
:100A30008C918BB9E60FF71F808185B98BB1832923
:100A40008BB99F5F933011F728960FB6F894DEBFED
:100A50000FBECDBFCF91DF911F910F91FF90EF900F
:100A6000DF90CF90BF90AF909F908F907F906F90CE
:100A70005F904F903F9008953F924F925F926F9298
:100A80007F928F929F92AF92BF92CF92DF92EF921E
:100A9000FF920F931F93DF93CF93CDB7DEB72997C4
:100AA0000FB6F894DEBF0FBECDBF8C015B01DC0139
:100AB00011968C9160E00E94400EF801838160E005
:100AC0000E94400ED80114968C9160E00E94400E66
:100AD000FBB0D5B0F801818161E00E94400ED801E1
:100AE00011968C9160E00E94400EF801838161E0D4
:100AF0000E94400ED80114968C9161E00E94400E35
:100B0000F801818161E00E94400E3BB0D80111964E
:100B10008C9160E00E94400EF50144815581668110
:100B200077816084718482849384F982D8011396DA
:100B30002C91283058F481E090E0022E02C0880FFA
:100B4000991F0A94E2F78F298A8301C0FA82D8019B
:100B50001496EC91E83058F481E090E00E2E02C03B
:100B6000880F991F0A94E2F78F298B8301C0FB82BB
:100B70008B819A81892B8F298C83DD82283070F0BC
:100B8000822F90E0089721E030E002C0220F331F4F
:100B90008A95E2F78D2D822B8E8301C0DE82E830AC
:100BA00070F08E2F90E0089721E030E002C0220F15
:100BB000331F8A95E2F78D2D822B8F8301C0DF8250
:100BC00084017301ADE1EE0CFF1C001F111FAA95FB
:100BD000D1F7F3E07695679557954795FA95D1F754
:100BE000E42AF52A062B172B8F819E81892B8D29CC
:100BF0008887F501408151816281738119862E01B8
:100C00000894411C511CE5E0CE2ED12CCC0EDD1EEB
:100C10002E2DEE2DE170EE0F842F8170E80FF0E0A5
:100C2000D201AE0FBF1F8C918BB9EC0DFD1D8081E1
:100C300085B98BB183298BB9DB01CA0182709070B1
:100C4000A070B070B695A795979587952270280FDC
:100C500030E0F201E20FF31F80818BB92C0D3D1DB6
:100C6000D9018C9185B98BB183298BB992E07695A6
:100C70006795579547959A95D1F782E01695079510
:100C8000F794E7948A95D1F7B985BE5FB987B032FA
:100C900009F0BECFF50140835183628373838401E1
:100CA0007301B3E016950795F794E794BA95D1F7D9
:100CB000248135814681578190E04E010894811C42
:100CC000911CBE016B5F7F4FEE2DE170EE0F822F06
:100CD0008170E80F56954795379527951695079596
:100CE000F794E794F0E0D401AE0FBF1F8C918BB95D
:100CF000E60FF71F808185B98BB183298BB99F5F80
:100D0000933011F7D50114962D933D934D935C9339
:100D1000179729960FB6F894DEBF0FBECDBFCF91BF
:100D2000DF911F910F91FF90EF90DF90CF90BF90D8
:100D3000AF909F908F907F906F905F904F903F907B
:100D40000895FC01808180FF0AC081FF04C0CF01AB
:100D50000E94FF030895CF010E943C050895CF0132
:100D60000E94D2020895EF92FF920F931F93DF9398
:100D7000CF93CDB7DEB72C970FB6F894DEBF0FBE7A
:100D8000CDBFBC01DE011196E9EBF1E08CE00190F2
:100D90000D928150E1F76E527F4FFB01E080625D62
:100DA00070408B0100531F4FA5E4FA2EE7FE02C0EE
:100DB000F5E4EF2EEE2DFF27E7FDF095E60FF71F88
:100DC0008081F80120813181280F311D31832083FA
:100DD0002F3F310509F014F420E006C020503140C7
:100DE000F8013183208321E0FFE1FF15A4F030E01A
:100DF00040E050E089819A81AB81BC81880F991FC6
:100E0000AA1FBB1F282B392B4A2B5B2B29833A8324
:100E10004B835C8327C030E040E050E08FE38F15C8
:100E20008CF08D819E81AF81B885880F991FAA1F94
:100E3000BB1F282B392B4A2B5B2B2D833E834F83E3
:100E4000588710C089859A85AB85BC85880F991F06
:100E5000AA1FBB1F282B392B4A2B5B2B29873A87CC
:100E60004B875C87FA9402501040EFEFFE1611F0AA
:100E7000EA949CCF6C527F4FFB0180819181BE012F
:100E80006F5F7F4F0E94A1062C960FB6F894DEBFCD
:100E90000FBECDBFCF91DF911F910F91FF90EF90CB
:100EA00008951F920F920FB60F9211242F933F9324
:100EB0004F935F936F937F938F939F93AF93BF9362
:100EC000EF93FF938091E0019091E101009711F081
:100ED0000E94B3068091B2008093E2011092E30178
:100EE0009091E401890F8093B200FF91EF91BF913F
:100EF000AF919F918F917F916F915F914F913F91B2
:100F00002F910F900FBE0F901F9018950F931F9366
:100F1000CF93DF93EC01862F188269834B832C8358
:100F20000A8361E00E94200E8B8161E00E94200E06
:100F30008C8161E00E94200E8A8161E00E94200E77
:100F40008B8160E00E94400E8C8160E00E94400E28
:100F500000E010E0CE0141E050E060E070E00E946F
:100F60000F01898161E00E94400ECE0141E050E016
:100F700060E070E00E940F01898160E00E94400EF5
:100F80000F5F1F4F0532110529F7DF91CF911F9198
:100F90000F9108950F931F9303E712E0C80140E8F3
:100FA00055E260E070E00E94CA0EC80160E071E0A6
:100FB0000E94A2101F910F910895AA2797FDA09556
:100FC000BA2FBC01CD010E94BC0D8091E5018823A0
:100FD00039F40DC06AE070E080E090E00E94BC0D42
:100FE00083E792E00E94C30F8823A1F306C083E742
:100FF00092E00E94C30F8823D1F083E792E00E9421
:10100000D70F833751F483E792E068E271E00E94E2
:10101000A21081E08093E5010895833641F483E7CF
:1010200092E06DE271E00E94A2101092E501089535
:101030002F923F924F925F926F927F928F929F92E8
:10104000AF92BF92CF92DF92EF92FF920F931F93D6
:10105000DF93CF93CDB7DEB768970FB6F894DEBFB6
:101060000FBECDBF4C017A8B698B5C8B4B8B6901BA
:10107000B801DE011196E5ECF1E080E101900D92FE
:101080008150E1F7EE2059F0D401AC0DBD1D960161
:10109000AB014C0D5D1D8E010F5F1F4F25C0AA24B3
:1010A000BB247401EC0CFD1C23E2222E312C2E0CEF
:1010B0003F1C8601000F111F0D5D1F4F2401400EC4
:1010C000511E3B016C0C7D1C3EC0F901E770F070B5
:1010D000EE0FFF1FE00FF11F80818C9393968C938E
:1010E00093972F5F3F4F11962417350774F3D7CF8F
:1010F000F7019081F10160819801A701588E4F8A14
:10110000D6010FC02D8B3E8B1196FA018181819300
:10111000AF01EF89F88D81818193F88FEF8B2F5F7D
:101120003F4FA615B70574F3ED89FE89A80DB91DCB
:101130009C93E80DF91D608389899A890E94DD07D7
:101140000894A11CB11C8B899C89A816B90684F24D
:1011500068960FB6F894DEBF0FBECDBFCF91DF917A
:101160001F910F91FF90EF90DF90CF90BF90AF90C5
:101170009F908F907F906F905F904F903F902F90B7
:1011800008952F923F924F925F926F927F928F922B
:101190009F92AF92BF92CF92DF92EF92FF920F9306
:1011A0001F93DF93CF93CDB7DEB760970FB6F89458
:1011B000DEBF0FBECDBF4C017E836D8358874F834A
:1011C00059011A870987C80162E070E00E947C1407
:1011D0002B0189010D5D1F4F000F111F080D191DF7
:1011E00089859A85821B930B9C012D5D3F4F220FB1
:1011F000331F280D391D388B2F87D401AA0DBB1D35
:10120000BA83A9831401280E391EBC82AB823D012A
:101210000F2EF0E5CF2EF3E5DF2EF1EBEF2EFFE3FF
:10122000FF2EF02D6BC0C701B60120E533E541EB81
:101230005FE30E94FA136B017C0183E792E0B70140
:10124000A6010E94FB1160E070E080E090E020E0E9
:1012500031E040E050E00E942812F8017183608381
:1012600060E070E080E090E020E031E040E050E0BD
:101270000E9428120A5B1F4FD8016D937C9360E097
:1012800070E080E090E020E031E040E050E00E943B
:101290002812EF85F8897183608360E070E080E058
:1012A00090E020E031E040E050E00E9428122F85DD
:1012B00038892A5B3F4F388B2F87D9016D937C93F8
:1012C000C701B6010E941713F301608363A3D10124
:1012D0006C9393966C93EB81FC813196FC83EB834A
:1012E000045410402F85388928543040388B2F877C
:1012F0000894611C711C0894210831088B819C8121
:10130000481659060CF08FCFEE24FF246401CA0C56
:10131000DB1C43E2242E312C2C0C3D1C8501000FDC
:10132000111F0D5D1F4F2401400E511E69847A84E8
:101330006A0C7B1C34C0D6019C91F101408198015C
:10134000588A4F86B501A981BA81BE87AD8714C07E
:101350002B873C876F5F7F4FED85FE858181819371
:10136000FE87ED87AF85B88911968C9111978D9383
:10137000B88BAF872F5F3F4F661577054CF3EB8532
:10138000FC85680D791DDB019C93E80DF91D4083F8
:101390008D819E810E94DD070894E11CF11CEF8184
:1013A000F885EE16FF063CF260960FB6F894DEBFA5
:1013B0000FBECDBFCF91DF911F910F91FF90EF90A6
:1013C000DF90CF90BF90AF909F908F907F906F9065
:1013D0005F904F903F902F9008952F923F925F9291
:1013E0006F927F928F929F92AF92BF92CF92DF9235
:1013F000EF92FF920F931F93DF93CF9300D000D013
:1014000000D0CDB7DEB77A8369835C834B83590103
:1014100038015E2C882499241C01220E331E690198
:10142000CC0CDD1C23E230E0C20ED31EC80ED91E48
:101430006A0C7B1C22C0F8018081850D8083ED81C0
:10144000FE818081850D808389819A810E94DD07DC
:10145000F8018081851981938F01ED81FE81808162
:1014600085198193FE83ED830894E11CF11CE61439
:10147000F7040CF30894811C911C2B813C8182168B
:1014800093062CF48101DE82CD827501F0CF269681
:101490000FB6F894DEBF0FBECDBFCF91DF911F9185
:1014A0000F91FF90EF90DF90CF90BF90AF909F9003
:1014B0008F907F906F905F903F902F9008952F9224
:1014C0003F924F925F926F927F928F929F92AF92D4
:1014D000BF92CF92DF92EF92FF920F931F93DF9311
:1014E000CF93CDB7DEB7C957D1400FB6F894DEBF62
:1014F0000FBECDBF7E010894E11CF11CC7016091B5
:1015000097014091990120919B0100919D010E94BA
:1015100086078981816089838E010E551F4FC8011E
:10152000B7010E94ED00C8010E94920183E792E09A
:1015300068E371E00E94A210EE24FF2480919F01D5
:1015400061E00E94400EEE9CC001EF9C900DFE9C5D
:10155000900D11248C01000F111F000F111F080F97
:10156000191FC8010E94DD0780919F0160E00E9461
:10157000400EC8010E94DD070894E11CF11C2AE01E
:10158000E216F104D9F6CE018E559F4FC858DE4FB2
:1015900099838883C857D140CE0188519F4FC8583E
:1015A000DE4FE881F981C857D1401192C858DE4F0B
:1015B000F983E883C857D140E817F90781F7FE019E
:1015C000EE55FF4F1192C858DE4F28813981C85718
:1015D000D140E217F307B1F783E792E06FE371E0E0
:1015E0000E94A21083E792E063E471E00E94A210DF
:1015F0000EE6C02ED12CCC0EDD1EC601BE016E55EE
:101600007F4F40E020E204E61FE7E12EF12C0E942C
:101610003202C6010E94600204E610E02601C20107
:101620000E94AB01C8010E94DD0701501040B9F7CC
:10163000C2010E944D0283E792E06BE471E00E94D8
:10164000A210B2EA6B2E712C6C0E7D1EC201B3018A
:1016500040E020E204E6AFE7EA2EF12C0E943202DD
:10166000FBE78F2E912C8C0E9D1EC401B30140E030
:1016700020E20E943202E8E8AE2EB12CAC0EBD1E74
:10168000C501B30142E220E20E94320275E9C72E91
:10169000D12CCC0EDD1EC601B30142E220E20E9435
:1016A0003202F20193828282F401B382A282F501B6
:1016B000D382C282F60187818387F4018781838781
:1016C000C2010E948B0200E010E06EE6E62EF12CD3
:1016D000EC0EFD1EC7010E949E0282E390E00E9474
:1016E000DD070F5F1F4F04361105A1F7C7010E94E8
:1016F000BF0256E0452E512C4C0E5D1E42EAC42E10
:10170000D12CCC0EDD1EC201B60140E027E004E67C
:101710003FE7E32EF12C0E94C801CE014396B601AB
:1017200048E02FE00E94C801CE018096B60147E153
:1017300020E10E94C801CE018D96B6014FE128E15B
:101740000E94C8011AE3212E312C2C0E3D1EC1012E
:10175000B60143E223E30E94C801B7E48B2E912C2B
:101760008C0E9D1EC401B60143E223E30E94C80112
:10177000A4E5AA2EB12CAC0EBD1EC501B60142E4F3
:1017800023E30E94C801F1E66F2E712C6C0E7D1EC2
:10179000C301B60142E423E30E94C80123E130E023
:1017A0002C0F3D1F3987288780E290E08C0F9D1F0A
:1017B0009E8B8D8BEDE2F0E0EC0FFD1FFBA3EAA307
:1017C00038AA2FA69DAE8CAEF401B382A282F50199
:1017D000738262828BE2F40183878BE3F501838756
:1017E000C2010E948B0200E010E0F52C842D9F2D99
:1017F0000E949E028BE490E00E94DD070F5F1F4F66
:101800000436110599F7842D9F2D0E94BF0283E7AE
:1018100092E063E571E00E94A210FE01EE55FF4FD9
:101820001192C858DE4F28813981C857D140E2173C
:10183000F307B1F7FE01EE55FF4F9EE1948382E37B
:10184000878786E4838F80E884A384E181AB95ABAE
:10185000CF016BE470E044E050E020E030E000E2D3
:1018600010E0E0E8EE2EF12C0E94ED09FE01EE55AD
:10187000FF4F1192C858DE4F88819981C857D140D7
:10188000E817F907B1F705E9A02EB12CAC0EBD1E83
:1018900012EA212E312C2C0E3D1EC501B10140E073
:1018A00028E004E6BFE7EB2EF12C0E943202A8E804
:1018B0006A2E712C6C0E7D1EC301B10148E028E038
:1018C0000E943202FBE78F2E912C8C0E9D1EC401CC
:1018D000B10140E128E00E943202EEE6CE2ED12C8A
:1018E000CC0EDD1EC601B10148E128E00E943202A3
:1018F000F50173826282F30193828282F401D382C2
:10190000C282F60187818387F30187818387C501BE
:101910000E948B0200E010E0CA2CAB2C73E2E72E91
:10192000F12CE20CF31C8C2D9A2D0E949E0262EA8F
:10193000462E512C4C0E5D1EF201808183A308942B
:10194000411C511C4E145F04B9F789E190E00E94DC
:10195000DD070F5F1F4F083C110529F755E9652E7C
:10196000712C6C0E7D1EC3010E94BF024EE6C42E78
:10197000D12CCC0EDD1EC601B10140E023E004E60F
:101980003FE7E32EF12C0E9432021BE7812E912CBF
:101990008C0E9D1EC401B10143E025E00E9432027D
:1019A000B8E8AB2EB12CAC0EBD1EC501B10148E0AC
:1019B00029E00E943202C301B10141E12FE00E94FF
:1019C0003202F60193828282F401B382A282F5018F
:1019D00073826282F30187818387F4018781838721
:1019E000C6010E948B0200E010E0FC2CCD2C8F2D54
:1019F0009C2D0E949E02FE01EE55FF4F808183A325
:101A00003196E415F505D1F789E190E00E94DD07F4
:101A10000F5F1F4F083C110551F7CE0182599F4FB0
:101A20000E94BF0283E792E068E771E00E94A21083
:101A3000A2EACA2ED12CCC0EDD1EC60162E370E0F4
:101A400048EC50E020E030E000E210E0EE24E394C7
:101A50000E94180883E792E060E871E00E94A210FB
:101A6000C60169E170E048EC50E020E030E003E2BC
:101A700010E0FFEFEF2EF12C0E94C108C6016FE0CD
:101A800070E04CE251E020E030E00E94C108C60165
:101A900065E070E048E552E020E030E00E94C108D7
:101AA000C6010E949D01C758DE4F0FB6F894DEBFF5
:101AB0000FBECDBFCF91DF911F910F91FF90EF909F
:101AC000DF90CF90BF90AF909F908F907F906F905E
:101AD0005F904F903F902F9008950E94E60D0E94D6
:101AE000CA070E945F0AFDCF1F920F920FB60F9296
:101AF00011242F933F938F939F93AF93BF93809124
:101B0000EA019091EB01A091EC01B091ED013091CF
:101B1000EE010196A11DB11D232F2D5F2D3720F061
:101B20002D570196A11DB11D2093EE018093EA016E
:101B30009093EB01A093EC01B093ED018091E6014D
:101B40009091E701A091E801B091E9010196A11DF2
:101B5000B11D8093E6019093E701A093E801B09353
:101B6000E901BF91AF919F918F913F912F910F907C
:101B70000FBE0F901F901895EF92FF920F931F9337
:101B80007B018C018FB7F8944091EA015091EB01F1
:101B90006091EC017091ED018FBF2FB7F8948091A7
:101BA000EA019091EB01A091EC01B091ED012FBF02
:101BB000841B950BA60BB70BE816F9060A071B0743
:101BC00060F71F910F91FF90EF900895789484B57E
:101BD000826084BD84B5816084BD85B5826085BD29
:101BE00085B5816085BDEEE6F0E08081816080830F
:101BF000E1E8F0E080818260808380818160808381
:101C0000E0E8F0E0808181608083E1EBF0E08081BA
:101C100084608083E0EBF0E0808181608083EAE78C
:101C2000F0E0808184608083808182608083808115
:101C3000816080838081806880831092C1000895D4
:101C4000282F30E0C90186569F4FFC0194912A57F6
:101C50003F4FF9018491882391F0E82FF0E0EE0FD7
:101C6000FF1FE859FF4FA591B491662329F48C9189
:101C7000909589238C9308958C91892B8C9308954A
:101C8000482F50E0CA0182559F4FFC012491CA01A0
:101C900086569F4FFC0194914A575F4FFA01349149
:101CA0003323D1F1222331F1233021F480918000BC
:101CB0008F7705C0243031F4809180008F7D809330
:101CC000800018C0213019F484B58F7704C0223009
:101CD00021F484B58F7D84BD0DC0263021F4809120
:101CE000B0008F7705C0273029F48091B0008F7D38
:101CF0008093B000E32FF0E0EE0FFF1FEE58FF4F90
:101D0000A591B491662329F48C91909589238C93A5
:101D100008958C91892B8C9308951F920F920FB682
:101D20000F9211242F933F934F935F936F937F9361
:101D30008F939F93AF93BF93EF93FF934091C60010
:101D4000E0916F02F0917002CF01019660E870E0BF
:101D50000E947C149C01809171029091720228175C
:101D6000390739F0E151FE4F4083309370022093E0
:101D70006F02FF91EF91BF91AF919F918F917F91F2
:101D80006F915F914F913F912F910F900FBE0F90E8
:101D90001F9018955F926F927F928F929F92AF9251
:101DA000BF92CF92DF92EF92FF920F931F93CF9348
:101DB000DF93EC013A014B01413482E458078FE094
:101DC000680780E078070CF07FC060E874E88EE177
:101DD00090E0A40193010E94B11421503040404092
:101DE0005040CA01B90122E030E040E050E00E94DA
:101DF000B11459016A01A6019501209530954095CD
:101E0000509594E0220F331F441F551F9A95D1F728
:101E100060E074E284EF90E00E94B114CA01B9015D
:101E20002FEF30E040E050E00E945D14A4019301E8
:101E30000E94B114C90181509F4F181619061CF455
:101E4000522E5A9403C055245394521A60E079E0FC
:101E50008DE390E0A40193010E94B1142150304021
:101E600040405040CA01B90122E030E040E050E07B
:101E70000E94B114209530954095509583E0220F33
:101E8000331F441F551F8A95D1F760E074E284EF39
:101E900090E00E94B114CA01B9012FEF30E040E098
:101EA00050E00E945D14A40193010E94B114C90185
:101EB00081509F4F181619061CF4822F815002C0C2
:101EC00081E0821B851500F5E885F98581E090E0C9
:101ED0000A8802C0880F991F0A94E2F7808360E0A5
:101EE00079E08DE390E0A40193010E94B1142150A8
:101EF000304040405040CA01B90122E030E040E0AB
:101F000050E00E94B11404C0E885F9851082950163
:101F1000EC81FD813083EE81FF812083EA85FB85A2
:101F2000208141E050E0CA010E8402C0880F991F51
:101F30000A94E2F7282B2083EA85FB852081CA01D9
:101F40000F8402C0880F991F0A94E2F7282B208380
:101F5000EA85FB858081088802C0440F551F0A94DA
:101F6000E2F7842B8083DF91CF911F910F91FF9037
:101F7000EF90DF90CF90BF90AF909F908F907F9029
:101F80006F905F900895DC011296ED91FC9113978C
:101F9000E058FF4F8191919180589F4F208131816E
:101FA000821B930B60E870E00E947C140895CF932D
:101FB000DF93DC011296ED91FC911397EF01CE5760
:101FC000DF4F48815981E058FF4F80819181E0586F
:101FD000F0408417950719F42FEF3FEF0CC0E40F82
:101FE000F51F2081CA01019660E870E00E947C1410
:101FF0009983888330E0C901DF91CF910895FC0176
:10200000A085B18521898C9190E0022E02C0959522
:1020100087950A94E2F780FFF6CF0484F585E02DDA
:102020006083089589ED91E0909374028093730228
:102030008FEE91E0909376028093750285EC90E0AC
:10204000909378028093770284EC90E090937A02E8
:102050008093790280EC90E090937C0280937B02E5
:1020600081EC90E090937E0280937D0286EC90E07C
:102070009093800280937F0284E08093810283E0CA
:102080008093820287E08093830285E080938402BC
:1020900081E08093850208950F931F93CF93DF9380
:1020A0008C01EB0109C02196D801ED91FC910190C2
:1020B000F081E02DC801099568816623A1F7DF91C1
:1020C000CF911F910F910895EF92FF920F931F935D
:1020D000CF93DF938C017B01EA010CC0D7016D9196
:1020E0007D01D801ED91FC910190F081E02DC801B6
:1020F00009952197209791F7DF91CF911F910F912B
:10210000FF90EF900895DC01ED91FC910280F38146
:10211000E02D099508950F931F938C01DC01ED913B
:10212000FC910190F081E02D6DE00995D801ED91D1
:10213000FC910190F081E02DC8016AE009951F91A2
:102140000F9108950F931F938C010E948310C80173
:102150000E948B101F910F9108952F923F924F92E2
:102160005F926F927F928F929F92AF92BF92CF9227
:10217000DF92EF92FF920F931F93DF93CF93CDB730
:10218000DEB7A0970FB6F894DEBF0FBECDBF1C011F
:102190006A017B01411551056105710549F4DC01B6
:1021A000ED91FC910190F081E02D60E3099554C020
:1021B000882499245401422E55246624772401E072
:1021C00010E00C0F1D1F080D191DC701B601A3015A
:1021D00092010E948F14F80160830894811C911C65
:1021E000A11CB11CC701B601A30192010E948F146A
:1021F000C901DA016C017D01C114D104E104F104CB
:10220000F1F681E0E82EF12CEC0EFD1EE80CF91C35
:102210003E010894611C711CD501C4010197A109FC
:10222000B1096C01C818D90814C0F601EE0DFF1DE4
:1022300060816A3010F4605D01C0695CD101ED918C
:10224000FC910190F081E02DC10109950894E1080D
:10225000F1086E147F0449F7A0960FB6F894DEBF1C
:102260000FBECDBFCF91DF911F910F91FF90EF90E7
:10227000DF90CF90BF90AF909F908F907F906F90A6
:102280005F904F903F902F9008952AE00E94AD10EC
:102290000895EF92FF920F931F93CF93DF93EC017A
:1022A0007A018B0177FF0FC0E881F9810190F081FD
:1022B000E02D6DE2099510950095F094E094E11CF5
:1022C000F11C011D111DCE01B801A7012AE00E94D9
:1022D000AD10DF91CF911F910F91FF90EF90089576
:1022E0009F92AF92BF92CF92DF92EF92FF920F93A5
:1022F0001F93CF93DF93EC017A018B01922ECB01D8
:10230000BA0120E030E040E050E00E94AB128823A8
:1023100064F4E881F9810190F081E02DCE016DE255
:10232000099517FB109517F9109520E030E040E073
:102330005FE3AA240BC0CA01B90120E030E040E20B
:1023400051E40E94AF129B01AC01A394A91498F32D
:10235000C801B7010E9447125B016C010E941C1367
:102360007B018C01CE01B801A7010E944511992083
:1023700029F0CE0161E971E00E948310C801B70124
:102380000E9448139B01AC01C601B5010E94461290
:1023900020C020E030E040E251E40E94FA137B01CB
:1023A0008C010E9417135B016C01CC24B7FCC09414
:1023B000DC2CCE01B601A5010E944911C601B50170
:1023C0000E944A139B01AC01C801B7010E9446124A
:1023D0009A949920F1F6DF91CF911F910F91FF9080
:1023E000EF90DF90CF90BF90AF909F90089522E044
:1023F0000E94701108950F931F938C010E94F71192
:10240000C8010E948B101F910F910895EF92FF92C7
:102410000F931F937B018C01611571058105910557
:1024200029F420E030E040E050E00BC00E94DF00E3
:10243000A80197010E94B114AC01CB01DA019C0103
:10244000AD01B901CA011F910F91FF90EF9008955E
:10245000EF92FF920F931F937B018C01621773071A
:102460008407950764F4261B370B480B590BCA01E8
:10247000B9010E940612E60EF71E081F191FB701C8
:10248000C8011F910F91FF90EF9008955058BB27FE
:10249000AA270ED075C166D130F06BD120F031F48F
:1024A0009F3F11F41EF45BC10EF4E095E7FB51C1B0
:1024B000E92F77D180F3BA1762077307840795076E
:1024C00018F071F49EF58FC10EF4E0950B2EBA2F23
:1024D000A02D0B01B90190010C01CA01A00111242A
:1024E000FF27591B99F0593F50F4503E68F11A16D6
:1024F000F040A22F232F342F4427585FF3CF469567
:1025000037952795A795F0405395C9F77EF41F1688
:10251000BA0B620B730B840BBAF09150A1F0FF0F52
:10252000BB1F661F771F881FC2F70EC0BA0F621F3E
:10253000731F841F48F4879577956795B795F7952E
:102540009E3F08F0B3CF9395880F08F09927EE0FC0
:10255000979587950895D9D008F481E008950CD017
:102560000FC107D140F0FED030F021F45F3F19F0E9
:10257000F0C0511139C1F3C014D198F39923C9F3B4
:102580005523B1F3951B550BBB27AA276217730779
:10259000840738F09F5F5F4F220F331F441FAA1F2D
:1025A000A9F333D00E2E3AF0E0E830D091505040ED
:1025B000E695001CCAF729D0FE2F27D0660F771F9B
:1025C000881FBB1F261737074807AB07B0E809F07D
:1025D000BB0B802DBF01FF2793585F4F2AF09E3F12
:1025E000510568F0B6C000C15F3FECF3983EDCF3E4
:1025F000869577956795B795F7959F5FC9F7880F8B
:10260000911D9695879597F90895E1E0660F771FDC
:10261000881FBB1F621773078407BA0720F0621B6D
:10262000730B840BBA0BEE1F88F7E095089504D066
:102630006894B111D9C00895BCD088F09F5790F02C
:10264000B92F9927B751A0F0D1F0660F771F881FD7
:10265000991F1AF0BA95C9F712C0B13081F0C3D0F2
:10266000B1E00895C0C0672F782F8827B85F39F090
:10267000B93FCCF3869577956795B395D9F73EF436
:1026800090958095709561957F4F8F4F9F4F0895DE
:10269000E89409C097FB3EF49095809570956195FC
:1026A0007F4F8F4F9F4F9923A9F0F92F96E9BB27B2
:1026B0009395F695879577956795B795F111F8CF2E
:1026C000FAF4BB0F11F460FF1BC06F5F7F4F8F4F99
:1026D0009F4F16C0882311F096E911C0772321F08F
:1026E0009EE8872F762F05C0662371F096E8862F27
:1026F00070E060E02AF09A95660F771F881FDAF77E
:10270000880F9695879597F90895990F0008550FAA
:10271000AA0BE0E8FEEF16161706E807F907C0F067
:1027200012161306E407F50798F0621B730B840B6F
:10273000950B39F40A2661F0232B242B252B21F449
:1027400008950A2609F4A140A6958FEF811D811DE9
:10275000089597F99F6780E870E060E008959FEF23
:1027600080EC089500240A94161617061806090628
:10277000089500240A9412161306140605060895F7
:10278000092E0394000C11F4882352F0BB0F40F47F
:10279000BF2B11F460FF04C06F5F7F4F8F4F9F4FBF
:1027A000089557FD9058440F551F59F05F3F71F041
:1027B0004795880F97FB991F61F09F3F79F08795A8
:1027C0000895121613061406551FF2CF4695F1DF31
:1027D00008C0161617061806991FF1CF86957105C1
:1027E000610508940895E894BB2766277727CB01F5
:1027F00097F908950BD0C4CFB5DF28F0BADF18F0F1
:10280000952309F0A6CFABCF1124EECFCADFA0F3FA
:10281000959FD1F3950F50E0551F629FF001729F75
:10282000BB27F00DB11D639FAA27F00DB11DAA1F94
:10283000649F6627B00DA11D661F829F2227B00DE1
:10284000A11D621F739FB00DA11D621F839FA00D6C
:10285000611D221F749F3327A00D611D231F849FBC
:10286000600D211D822F762F6A2F11249F57504013
:102870008AF0E1F088234AF0EE0FFF1FBB1F661FAE
:10288000771F881F91505040A9F79E3F510570F067
:1028900060CFAACF5F3FECF3983EDCF38695779547
:1028A0006795B795F795E7959F5FC1F7FE2B880F62
:1028B000911D9695879597F90895629FD001739F12
:1028C000F001829FE00DF11D649FE00DF11D929FCC
:1028D000F00D839FF00D749FF00D659FF00D99270B
:1028E000729FB00DE11DF91F639FB00DE11DF91F2F
:1028F000BD01CF011124089597FB092E07260AD0A8
:1029000077FD04D049D006D000201AF47095619567
:102910007F4F0895F6F7909581959F4F0895A1E216
:102920001A2EAA1BBB1BFD010DC0AA1FBB1FEE1F49
:10293000FF1FA217B307E407F50720F0A21BB30B94
:10294000E40BF50B661F771F881F991F1A9469F710
:1029500060957095809590959B01AC01BD01CF016C
:10296000089597FB092E05260ED057FD04D0D7DF1A
:102970000AD0001C38F450954095309521953F4F72
:102980004F4F5F4F0895F6F790958095709561953C
:102990007F4F8F4F9F4F0895AA1BBB1B51E107C06C
:1029A000AA1FBB1FA617B70710F0A61BB70B881FDF
:1029B000991F5A95A9F780959095BC01CD0108956E
:1029C000EE0FFF1F0590F491E02D09942F923F9296
:1029D0004F925F926F927F928F929F92AF92BF922F
:1029E000CF92DF92EF92FF920F931F93CF93DF93DB
:1029F000CDB7DEB7CA1BDB0B0FB6F894DEBF0FBE38
:102A0000CDBF09942A88398848885F846E847D8484
:102A10008C849B84AA84B984C884DF80EE80FD8086
:102A20000C811B81AA81B981CE0FD11D0FB6F894FC
:0E2A3000DEBF0FBECDBFED010895F894FFCFBD
:102A3E004C6967687475696E6F206C696272617239
:102A4E007920646576656C6F706D656E7420746543
:102A5E0073742076312E300073746F7000636F6E56
:102A6E0074696E75650020005361792068690041B4
:102A7E006E690020205769706572002020537765BB
:102A8E00657000446F75626C65526F6C6C43686163
:102A9E007365722077697468206F74686572206C34
:102AAE006974204C454473004D6172717565650003
:102ABE00496E74656E73697479526F746174657260
:102ACE00002E00010000000300050002000B000DA7
:102ADE0000000000004D0273026002AB0100000016
:102AEE0000F5011B020802AB01000000000000000F
:102AFE000000000000FF00800040002000100008D1
:102B0E00000000000000000000FF0F4C10641000D9
:00000001FF
