:100000000C9461000C947E000C947E000C947E0095
:100010000C947E000C947E000C947E000C947E0068
:100020000C947E000C94EF050C947E000C947E00E2
:100030000C947E000C947E000C947E000C947E0048
:100040000C9498090C947E000C947E000C947E0015
:100050000C947E000C947E000C947E000C947E0028
:100060000C947E000C947E00000000002400270009
:100070002A0000000000250028002B0000000000DE
:1000800023002600290004040404040404040202DA
:100090000202020203030303030301020408102007
:1000A0004080010204081020010204081020000012
:1000B0000007000201000003040600000000000029
:1000C000000011241FBECFEFD8E0DEBFCDBF11E08E
:1000D000A0E0B1E0EAE9F6E102C005900D92A63198
:1000E000B107D9F711E0A6E1B1E001C01D92A43239
:1000F000B107E1F70E9493090C944B0B0C9400009C
:10010000CF93DF93DC01AC52BF4F11967C936E937B
:10011000A45DB040ED01CA5BDF4F80E090E0FD01DF
:10012000E80FF91F108219921992019686349105F1
:10013000B1F7AE52BF4F85E490E08D939C93DF9171
:10014000CF9108952F923F924F925F926F927F923C
:100150008F929F92AF92BF92CF92DF92EF92FF92D7
:100160000F931F931A012B01AA24BB24650120E0E1
:1001700030E040E050E06624772443012CC0840145
:100180007301E20EF31E041F151F0894A11CB11C7D
:10019000C11CD11CC601B501A80197010E940A0B20
:1001A00027E030E040E050E00E94290BC901DA016D
:1001B000A8019701281B390B4A0B5B0B0894A11C63
:1001C000B11CC11CD11C86E090E0A0E0B0E0680E3C
:1001D000791E8A1E9B1EA214B304C404D50478F2AF
:1001E000C9011F910F91FF90EF90DF90CF90BF90CA
:1001F000AF909F908F907F906F905F904F903F90C7
:100200002F90089520911601309117012817390772
:1002100031F410921701109216011092B100089556
:100220002F923F924F925F926F927F928F929F9206
:10023000AF92BF92CF92DF92EF92FF920F931F93F4
:10024000DF93CF9300D000D0CDB7DEB79C838B83F4
:100250001B01FC01818160E00E94BD0AEB81FC81F1
:10026000838160E00E94BD0AEB81FC81848160E0B3
:100270000E94BD0A8B819C8141E050E060E070E00B
:100280000E94A200EB81FC81818161E00E94BD0A95
:100290008B819C8141E050E060E070E00E94A20010
:1002A000EB81FC81818160E00E94BD0A8B819C8191
:1002B00040E050E060E070E00E94A200EB81FC8131
:1002C000838161E00E94BD0AEB81FC81848161E051
:1002D0000E94BD0A8B819C8140E050E060E070E0AC
:1002E0000E94A200EB81FC81818161E00E94BD0A35
:1002F0008B819C8141E050E060E070E00E94A200B0
:10030000EB81FC81818160E00E94BD0AC1010496FD
:100310009A838983F101208531854285538579014E
:100320008A017DE1EE0CFF1C001F111F7A95D1F7A9
:1003300084819581A681B78163E0B695A79597954D
:1003400087956A95D1F7E82AF92A0A2B1B2B5901C0
:100350006A0143E0D694C794B794A7944A95D1F71D
:1003600088249924F0E28F169104E4F4F10180814D
:100370009181A281B38131E0432E512C4822592230
:10038000B695A7959795879580839183A283B3832C
:1003900071E0672E712C6E207F2016950795F794DB
:1003A000E7941CC0E981FA8180819181A281B381A7
:1003B00051E0452E512C48225922B695A795979584
:1003C000879580839183A283B38331E0632E712C60
:1003D0006A207B20D694C794B794A7948B819C8184
:1003E00040E050E060E070E00E94A200EB81FC8100
:1003F0008381642D0E94BD0AEB81FC818481662D7E
:100400000E94BD0A8B819C8140E050E060E070E07A
:100410000E94A200EB81FC81818161E00E94BD0A03
:100420008B819C8141E050E060E070E00E94A2007E
:10043000EB81FC81818160E00E94BD0A0894811CEF
:10044000911CF3E28F16910409F08CCF0F900F905E
:100450000F900F90CF91DF911F910F91FF90EF9030
:10046000DF90CF90BF90AF909F908F907F906F90D4
:100470005F904F903F902F900895CF92DF92EF9230
:10048000FF920F931F93DF93CF93CDB7DEB72C97D7
:100490000FB6F894DEBF0FBECDBF49835A836B837E
:1004A0007C830D831E832F833887C986DA86EB868B
:1004B000FC86BE016F5F7F4F0E9410012C960FB625
:1004C000F894DEBF0FBECDBFCF91DF911F910F918A
:1004D000FF90EF90DF90CF9008953F924F925F9200
:1004E0006F927F928F929F92AF92BF92CF92DF9244
:1004F000EF92FF920F931F93DF93CF93CDB7DEB7A9
:1005000028970FB6F894DEBF0FBECDBF7C018B01DC
:10051000DC0111968C9160E00E94BD0AF701838195
:1005200060E00E94BD0AD70114968C9160E00E94A1
:10053000BD0A5BB045B0F701818161E00E94BD0A50
:10054000D70111968C9160E00E94BD0AF70183816A
:1005500061E00E94BD0AD70114968C9161E00E946F
:10056000BD0AF701818161E00E94BD0A3BB0D7015D
:1005700011968C9160E00E94BD0AF8014081518182
:10058000628173816480758086809780A084B18445
:10059000C284D3845982D70113962C91283058F401
:1005A00081E090E0022E02C0880F991F0A94E2F7C2
:1005B00085298A8301C05A82D7011496EC91E830CC
:1005C00058F481E090E00E2E02C0880F991F0A9423
:1005D000E2F785298B8301C05B828B819A81892B0D
:1005E00085298C834D82283070F0822F90E0089707
:1005F00021E030E002C0220F331F8A95E2F7842DFC
:10060000822B8E8301C04E82E83070F08E2F90E0F6
:10061000089721E030E002C0220F331F8A95E2F7ED
:10062000842D822B8F8301C04F828F819E81892BE5
:100630008429888700E02E010894411C511CE5E0C4
:10064000EE2EF12CEC0EFD1E262DE62DE170EE0FA8
:10065000842F8170E80FF0E0D201AE0FBF1F8C91A4
:100660008BB9EE0DFF1D808185B98BB183298BB9C4
:10067000DB01CA0182709070A070B070B695A7952A
:10068000979587952270280F30E0F201E20FF31F53
:1006900080818BB92E0D3F1DF901808185B98BB109
:1006A00083298BB982E076956795579547958A950A
:1006B000D1F712E096948794779467941A95D1F7BE
:1006C0000E5F003209F6A6019501B3E056954795F5
:1006D00037952795BA95D1F790E07E010894E11CF3
:1006E000F11CBE016B5F7F4FE22FE170EE0F8A2D90
:1006F0008170E80FD694C794B794A7945695479500
:1007000037952795F0E0D701AE0FBF1F8C918BB9BD
:10071000E60FF71F808185B98BB183298BB99F5F65
:10072000933011F728960FB6F894DEBF0FBECDBFF9
:10073000CF91DF911F910F91FF90EF90DF90CF90BD
:10074000BF90AF909F908F907F906F905F904F90F1
:100750003F900895CF92DF92EF92FF920F931F93F5
:10076000DF93CF93CDB7DEB72C970FB6F894DEBFEB
:100770000FBECDBF49835A836B837C830D831E8359
:100780002F833887C986DA86EB86FC86BE016F5FC9
:100790007F4F0E946D022C960FB6F894DEBF0FBEFD
:1007A000CDBFCF91DF911F910F91FF90EF90DF9020
:1007B000CF9008953F924F925F926F927F928F9267
:1007C0009F92AF92BF92CF92DF92EF92FF920F93E0
:1007D0001F93DF93CF93CDB7DEB729970FB6F89469
:1007E000DEBF0FBECDBF8C015B01DC0111968C9189
:1007F00060E00E94BD0AF801838160E00E94BD0AAA
:10080000D80114968C9160E00E94BD0AFBB0D5B06F
:10081000F801818161E00E94BD0AD80111968C9196
:1008200060E00E94BD0AF801838161E00E94BD0A78
:10083000D80114968C9161E00E94BD0AF801818173
:1008400061E00E94BD0A3BB0D80111968C9160E036
:100850000E94BD0AF50144815581668177816084DB
:10086000718482849384F982D80113962C91283064
:1008700058F481E090E0022E02C0880F991F0A947C
:10088000E2F78F298A8301C0FA82D8011496EC918D
:10089000E83058F481E090E00E2E02C0880F991FD6
:1008A0000A94E2F78F298B8301C0FB828B819A81A6
:1008B000892B8F298C83DD82283070F0822F90E085
:1008C000089721E030E002C0220F331F8A95E2F73B
:1008D0008D2D822B8E8301C0DE82E83070F08E2F4A
:1008E00090E0089721E030E002C0220F331F8A9584
:1008F000E2F78D2D822B8F8301C0DF82840173018B
:10090000ADE1EE0CFF1C001F111FAA95D1F7F3E01B
:100910007695679557954795FA95D1F7E42AF52A84
:10092000062B172B8F819E81892B8D298887F501B6
:10093000408151816281738119862E010894411C86
:10094000511CE5E0CE2ED12CCC0EDD1E2E2DEE2D31
:10095000E170EE0F842F8170E80FF0E0D201AE0F4E
:10096000BF1F8C918BB9EC0DFD1D808185B98BB1BA
:1009700083298BB9DB01CA0182709070A070B070BE
:10098000B695A795979587952270280F30E0F201CC
:10099000E20FF31F80818BB92C0D3D1DD9018C9185
:1009A00085B98BB183298BB992E076956795579578
:1009B00047959A95D1F782E016950795F794E794B5
:1009C0008A95D1F7B985BE5FB987B03209F0BECF3D
:1009D000F501408351836283738384017301B3E023
:1009E00016950795F794E794BA95D1F72481358148
:1009F0004681578190E04E010894811C911CBE01F4
:100A00006B5F7F4FEE2DE170EE0F822F8170E80F4C
:100A1000569547953795279516950795F794E7943A
:100A2000F0E0D401AE0FBF1F8C918BB9E60FF71F1A
:100A3000808185B98BB183298BB99F5F933011F782
:100A4000D50114962D933D934D935C93179729965A
:100A50000FB6F894DEBF0FBECDBFCF91DF911F91CF
:100A60000F91FF90EF90DF90CF90BF90AF909F904D
:100A70008F907F906F905F904F903F900895FC0112
:100A8000808180FF0AC081FF04C0CF010E946D02F7
:100A90000895CF010E94DA030895CF010E9410014A
:100AA0000895EF92FF920F931F93DF93CF93CDB7EB
:100AB000DEB72C970FB6F894DEBF0FBECDBFBC01DA
:100AC000DE011196EAE0F1E08CE001900D92815098
:100AD000E1F76E527F4FFB01E080625D70408B0159
:100AE00000531F4FA5E4FA2EE7FE02C0F5E4EF2EF7
:100AF000EE2DFF27E7FDF095E60FF71F8081F80147
:100B000020813181280F311D318320832F3F310512
:100B100009F014F420E006C020503140F801318380
:100B2000208321E0FFE1FF15A4F030E040E050E039
:100B300089819A81AB81BC81880F991FAA1FBB1F35
:100B4000282B392B4A2B5B2B29833A834B835C83DD
:100B500027C030E040E050E08FE38F158CF08D81AE
:100B60009E81AF81B885880F991FAA1FBB1F282BB4
:100B7000392B4A2B5B2B2D833E834F83588710C024
:100B800089859A85AB85BC85880F991FAA1FBB1FD5
:100B9000282B392B4A2B5B2B29873A874B875C877D
:100BA000FA9402501040EFEFFE1611F0EA949CCF39
:100BB0006C527F4FFB0180819181BE016F5F7F4F3F
:100BC0000E943F052C960FB6F894DEBF0FBECDBF36
:100BD000CF91DF911F910F91FF90EF9008951F9299
:100BE0000F920FB60F9211242F933F934F935F9361
:100BF0006F937F938F939F93AF93BF93EF93FF93E5
:100C00008091160190911701009711F00E945105F3
:100C10008091B200809318011092190190911A01ED
:100C2000890F8093B200FF91EF91BF91AF919F9197
:100C30008F917F916F915F914F913F912F910F9085
:100C40000FBE0F901F9018950F931F93CF93DF93B4
:100C5000EC01862F188269834B832C830A8361E021
:100C60000E949D0A8B8161E00E949D0A8C8161E057
:100C70000E949D0A8A8161E00E949D0A8B8160E04A
:100C80000E94BD0A8C8160E00E94BD0A00E010E075
:100C9000CE0141E050E060E070E00E94A200898156
:100CA00061E00E94BD0ACE0141E050E060E070E0EA
:100CB0000E94A200898160E00E94BD0A0F5F1F4F61
:100CC0000532110529F7DF91CF911F910F910895FA
:100CD000FC0182818F3F19F070E00E94440A089560
:100CE0002F923F924F925F926F927F928F929F923C
:100CF000AF92BF92CF92DF92EF92FF920F931F932A
:100D0000CF93DF93382E292E882499245401832DE4
:100D1000922D4FEF5FEF6FEF7FEF0FEF1FEF2FEF92
:100D20003FEFBFEFCB2ED12CE12CF12C0E943D02E6
:100D30008091080161E00E94BD0AC501B4010E94D2
:100D4000E009832D922D40E050E060E070E000E08B
:100D500010E020E030E0CC24DD2476010E943D024A
:100D60008091080160E00E94BD0A64EF71E080E0BC
:100D700090E00E94E0098AEF90E0A0E0B0E0880EE9
:100D8000991EAA1EBB1E92EE891694E0990690E069
:100D9000A90690E0B90609F0BACFA4E68A2E912CF4
:100DA000A12CB12CF1E04F2E512C612C712C52C092
:100DB0008C2FC03240F4CC24DD24760100E010E01A
:100DC00020E030E020C0A097930182010C2E04C0E7
:100DD000000F111F221F331F0A94D2F7A0968034F0
:100DE00020F4CC24DD2476010EC0C054D040730121
:100DF00062010C2E04C0CC0CDD1CEE1CFF1C0A94FE
:100E0000D2F7C05CDF4FB301A20104C0440F551FED
:100E1000661F771F8A95D2F7832D922D0E943D027F
:100E2000C501B4010E94E0092196C634D10509F03C
:100E3000BFCF8CEE9FEFAFEFBFEF880E991EAA1EBB
:100E4000BB1E9CEE89169FEF99069FEFA9069FEFA8
:100E5000B90619F0C0E0D0E0ABCF832D922D4FEF53
:100E60005FEF6FEF7FEF0FEF1FEF2FEF3FEFEFEF32
:100E7000CE2ED12CE12CF12C0E943D0268EE73E0C5
:100E800080E090E00E94E009C0E0D0E0832D922D48
:100E90006C2F0E9468066AE070E080E090E00E949B
:100EA000E0092196A1E0C030DA0781F7CFEFD0E06A
:100EB000832D922D6C2F0E9468066AE070E080E01E
:100EC00090E00E94E0092197BFEFCF3FDB0781F759
:100ED000832D922D6FEF0E946806DF91CF911F91B5
:100EE0000F91FF90EF90DF90CF90BF90AF909F90C9
:100EF0008F907F906F905F904F903F902F900895CC
:100F00002F923F924F925F926F927F928F929F9219
:100F1000AF92BF92CF92DF92EF92FF920F931F9307
:100F2000DF93CF93CDB7DEB7C65DD0400FB6F89450
:100F3000DEBF0FBECDBFBC015E010894A11CB11C79
:100F4000C5010E9480006624772407E4202E312CFE
:100F50002C0E3D1E14E2412E512C4C0E5D1E52C033
:100F6000F70111927F01E215F305D1F700E010E0DF
:100F7000C5010E9451050F5F1F4FF1E0043F1F079D
:100F8000B9F7F50180E28193EE15FF05D9F700E08E
:100F900010E0C5010E9451050F5F1F4FE1E0043FC3
:100FA0001E07B9F70894C11CD11CF2E0CF16D1047A
:100FB00021F46201EE24FF2409C045017501D0CF60
:100FC000F40111924F01F60111926F01F4011082A8
:100FD000F601108200E010E0C5010E9451050F5F8C
:100FE0001F4F04361105C1F70894E11CF11CF0E213
:100FF000EF16F10429F70894611C711C85E068164E
:10100000710419F0CC24DD24D8CFC5010E9402015F
:10101000CA52DF4F0FB6F894DEBF0FBECDBFCF91DF
:10102000DF911F910F91FF90EF90DF90CF90BF90D5
:10103000AF909F908F907F906F905F904F903F9078
:101040002F9008954F925F926F927F928F929F920E
:10105000AF92BF92CF92DF92EF92FF920F931F93C6
:10106000CF93DF932C01C0E0D0E0A1E08A2E912C39
:10107000A12CB12CF0E26F2E712CB501A4010C2E25
:1010800004C0440F551F661F771F0A94D2F78301CF
:101090000C1B1D0BD501C40104C0880F991FAA1F8A
:1010A000BB1F0A95D2F78C019D01C201CC24DD241F
:1010B00076010E94AA0364E670E080E090E00E945E
:1010C000E0092196C032D105C1F6DF91CF911F9181
:1010D0000F91FF90EF90DF90CF90BF90AF909F90D7
:1010E0008F907F906F905F904F9008956F927F9256
:1010F0008F929F92AF92BF92CF92DF92EF92FF9228
:101100000F931F93CF93DF933C01C0E0D0E0B1E099
:101110008B2E912CA12CB12C950184010C2E04C096
:10112000000F111F221F331F0A94D2F7C301B90108
:10113000A801CC24DD2476010E94AA0364EF71E0AB
:1011400080E090E00E94E0092196C032D10521F7AD
:10115000DF91CF911F910F91FF90EF90DF90CF9093
:10116000BF90AF909F908F907F906F900895AF92B7
:10117000BF92CF92DF92EF92FF920F931F93DF9374
:10118000CF9300D000D00F92CDB7DEB75E010894A8
:10119000A11CB11CC5016091000140910201209188
:1011A0000401009106010E942406898181608983DF
:1011B000C5014FEF5FEF6FEF7FEF0FEF1FEF2FEFE7
:1011C0003FEFFFEFCF2ED12CE12CF12C0E943D02FE
:1011D00068EE73E080E090E00E94E009C50140E025
:1011E00050E060E070E000E010E020E030E0CC246F
:1011F000DD2476010E943D026AEF70E080E090E01D
:101200000E94E009C50140E050E060E07FE000E0BE
:1012100010E020E030E00E943D0268EE73E080E0E4
:1012200090E00E94E009C50140E050E060E070E01D
:1012300000EF1FEF2FEF3FEFEFEFCE2ED12CE12C81
:10124000F12C0E943D0268EB7BE080E090E00E9480
:10125000E009C50140E050E060E070E000E010E02F
:1012600020E030E0CC24DD2476010E943D026AEFCC
:1012700070E080E090E00E94E009AA24BB246501B0
:101280008091080161E00E94BD0AC601B501A60176
:1012900095010E940A0B7B018C0122E0EE0CFF1CE1
:1012A000001F111F2A95D1F7E60EF71E081F191F00
:1012B000B701C8010E94E0098091080160E00E9426
:1012C000BD0AB701C8010E94E0090894A11CB11C25
:1012D000C11CD11C8AE0A816B104C104D10481F656
:1012E0008E010F5F1F4FC8016FEF0E946806C80193
:1012F0000E947608C8010E942208C8010E94800747
:10130000C8010E9470060F900F900F900F900F90E1
:10131000CF91DF911F910F91FF90EF90DF90CF90D1
:10132000BF90AF9008950E940A0A0E94B708FDCFAF
:101330001F920F920FB60F9211242F933F938F930A
:101340009F93AF93BF9380911F0190912001A09133
:101350002101B0912201309123010196A11DB11DFF
:10136000232F2D5F2D3720F02D570196A11DB11D84
:101370002093230180931F0190932001A0932101CA
:10138000B093220180911B0190911C01A0911D013D
:10139000B0911E010196A11DB11D80931B01909378
:1013A0001C01A0931D01B0931E01BF91AF919F91AD
:1013B0008F913F912F910F900FBE0F901F90189516
:1013C000EF92FF920F931F937B018C018FB7F894DC
:1013D00040911F01509120016091210170912201E3
:1013E0008FBF2FB7F89480911F0190912001A09199
:1013F0002101B09122012FBF841B950BA60BB70BC7
:10140000E816F9060A071B0760F71F910F91FF9076
:10141000EF900895789484B5826084BD84B581602E
:1014200084BD85B5826085BD85B5816085BDEEE6EC
:10143000F0E0808181608083E1E8F0E0808182607B
:101440008083808181608083E0E8F0E0808181603A
:101450008083E1EBF0E0808184608083E0EBF0E06A
:10146000808181608083EAE7F0E08081846080830E
:1014700080818260808380818160808380818068B8
:1014800080831092C10008951F93CF93DF93182F8C
:10149000EB0161E00E949D0AE12FF0E0E255FF4F71
:1014A0008491833051F48091800080688093800023
:1014B000D0938900C09388003CC0843051F480915F
:1014C0008000806280938000D0938B00C0938A005C
:1014D00030C0813039F4209729F184B5806884BD0B
:1014E000C7BD27C0823039F42097E1F084B580620F
:1014F00084BDC8BD1EC0863041F48091B0008068B4
:101500008093B000C093B30014C0873041F4809141
:10151000B00080628093B000C093B4000AC0C038AD
:10152000D1051CF4812F60E002C0812F61E00E9490
:10153000BD0ADF91CF911F910895282F30E0C90196
:1015400086569F4FFC0194912A573F4FF901849191
:10155000882391F0E82FF0E0EE0FFF1FE859FF4FCE
:10156000A591B491662329F48C91909589238C934D
:1015700008958C91892B8C930895482F50E0CA01CF
:1015800082559F4FFC012491CA0186569F4FFC0152
:1015900094914A575F4FFA0134913323D1F12223BA
:1015A00031F1233021F4809180008F7705C0243001
:1015B00031F4809180008F7D8093800018C02130AD
:1015C00019F484B58F7704C0223021F484B58F7D5F
:1015D00084BD0DC0263021F48091B0008F7705C006
:1015E000273029F48091B0008F7D8093B000E32FE5
:1015F000F0E0EE0FFF1FEE58FF4FA591B491662368
:1016000029F48C91909589238C9308958C91892B42
:101610008C930895629FD001739FF001829FE00D2B
:10162000F11D649FE00DF11D929FF00D839FF00D61
:10163000749FF00D659FF00D9927729FB00DE11D0D
:10164000F91F639FB00DE11DF91FBD01CF011124EA
:101650000895A1E21A2EAA1BBB1BFD010DC0AA1FF3
:10166000BB1FEE1FFF1FA217B307E407F50720F00B
:10167000A21BB30BE40BF50B661F771F881F991F86
:101680001A9469F760957095809590959B01AC01CF
:0A169000BD01CF010895F894FFCFCB
:10169A000300050002000B000D000000000000001E
:0616AA000000000000003A
:00000001FF
