:100000000C9462000C948D060C94BA060C948A0031
:100010000C948A000C948A000C948A000C948A0038
:100020000C948A000C948A000C948A000C948A0028
:100030000C948A000C948A000C948A000C948A0018
:100040000C94E7060C948A000C9406060C948A0023
:100050000C948A000C948A000C948A000C948A00F8
:100060000C948A000C948A000000000024002700F1
:100070002A0000000000250028002B0000000000DE
:1000800023002600290004040404040404040202DA
:100090000202020203030303030301020408102007
:1000A0004080010204081020010204081020000012
:1000B0000007000201000003040600000000000029
:1000C0000000560611241FBECFEFD4E0DEBFCDBF27
:1000D00011E0A0E0B1E0E2EEF1E102C005900D9286
:1000E000A830B107D9F711E0A8E0B1E001C01D9236
:1000F000AE3AB107E1F710E0C4ECD0E004C02297BB
:10010000FE010E94EB08C23CD107C9F70E9401061C
:100110000C94EF080C9400002F923F924F925F9244
:100120006F927F928F929F92AF92BF92CF92DF9207
:10013000EF92FF920F931F931A012B01AA24BB2465
:10014000650120E030E040E050E066247724430180
:100150002CC084017301E20EF31E041F151F0894C6
:10016000A11CB11CC11CD11CC601B501A80197017D
:100170000E94810827E030E040E050E00E94B30890
:10018000C901DA01A8019701281B390B4A0B5B0B47
:100190000894A11CB11CC11CD11C86E090E0A0E019
:1001A000B0E0680E791E8A1E9B1EA214B304C4041C
:1001B000D50478F2C9011F910F91FF90EF90DF9065
:1001C000CF90BF90AF909F908F907F906F905F90F7
:1001D0004F903F902F9008952F923F924F925F92B1
:1001E0006F927F928F929F92AF92BF92CF92DF9247
:1001F000EF92FF920F931F93DF93CF9300D000D025
:10020000CDB7DEB79C838B831B01FC01818160E04D
:100210000E943408EB81FC81838160E00E943408F5
:10022000EB81FC81848160E00E9434088B819C8199
:1002300041E050E060E070E00E948C00EB81FC81C6
:10024000818161E00E9434088B819C8141E050E013
:1002500060E070E00E948C00EB81FC81818160E0B5
:100260000E9434088B819C8140E050E060E070E0A7
:100270000E948C00EB81FC81838161E00E94340844
:10028000EB81FC81848161E00E9434088B819C8138
:1002900040E050E060E070E00E948C00EB81FC8167
:1002A000818161E00E9434088B819C8141E050E0B3
:1002B00060E070E00E948C00EB81FC81818160E055
:1002C0000E943408C10104969A838983F101208534
:1002D00031854285538579018A017DE1EE0CFF1C51
:1002E000001F111F7A95D1F784819581A681B7816E
:1002F00063E0B695A795979587956A95D1F7E82A13
:10030000F92A0A2B1B2B59016A0143E0D694C794A2
:10031000B794A7944A95D1F788249924F0E28F16D0
:100320009104E4F4F10180819181A281B38131E0F3
:10033000432E512C48225922B695A795979587951B
:1003400080839183A283B38371E0672E712C6E202A
:100350007F2016950795F794E7941CC0E981FA81F0
:1003600080819181A281B38151E0452E512C482298
:100370005922B695A7959795879580839183A283F7
:10038000B38331E0632E712C6A207B20D694C7940E
:10039000B794A7948B819C8140E050E060E070E0CE
:1003A0000E948C00EB81FC818381642D0E943408C3
:1003B000EB81FC818481662D0E9434088B819C81B5
:1003C00040E050E060E070E00E948C00EB81FC8136
:1003D000818161E00E9434088B819C8141E050E082
:1003E00060E070E00E948C00EB81FC81818160E024
:1003F0000E9434080894811C911CF3E28F1691042A
:1004000009F08CCF0F900F900F900F90CF91DF914C
:100410001F910F91FF90EF90DF90CF90BF90AF9022
:100420009F908F907F906F905F904F903F902F9014
:1004300008953F924F925F926F927F928F929F9218
:10044000AF92BF92CF92DF92EF92FF920F931F93E2
:10045000DF93CF93CDB7DEB729970FB6F894DEBF01
:100460000FBECDBF8C015B01DC0111968C9160E069
:100470000E943408F801838160E00E943408D801AA
:1004800014968C9160E00E943408FBB0D5B0F8015E
:10049000818161E00E943408D80111968C9160E05E
:1004A0000E943408F801838161E00E943408D80179
:1004B00014968C9161E00E943408F801818161E01A
:1004C0000E9434083BB0D80111968C9160E00E94E4
:1004D0003408F50144815581668177816084718497
:1004E00082849384F982D80113962C91283058F491
:1004F00081E090E0022E02C0880F991F0A94E2F773
:100500008F298A8301C0FA82D8011496EC91E830D1
:1005100058F481E090E00E2E02C0880F991F0A94D3
:10052000E2F78F298B8301C0FB828B819A81892B13
:100530008F298C83DD82283070F0822F90E008971D
:1005400021E030E002C0220F331F8A95E2F78D2DA3
:10055000822B8E8301C0DE82E83070F08E2F90E017
:10056000089721E030E002C0220F331F8A95E2F79E
:100570008D2D822B8F8301C0DF8284017301ADE159
:10058000EE0CFF1C001F111FAA95D1F7F3E0769522
:10059000679557954795FA95D1F7E42AF52A062BE2
:1005A000172B8F819E81892B8D298887F5014081AA
:1005B00051816281738119862E010894411C511C5E
:1005C000E5E0CE2ED12CCC0EDD1E2E2DEE2DE170D1
:1005D000EE0F842F8170E80FF0E0D201AE0FBF1F45
:1005E0008C918BB9EC0DFD1D808185B98BB1832970
:1005F0008BB9DB01CA0182709070A070B070B695A3
:10060000A795979587952270280F30E0F201E20FA9
:10061000F31F80818BB92C0D3D1DD9018C9185B9BB
:100620008BB183298BB992E076956795579547955D
:100630009A95D1F782E016950795F794E7948A95F5
:10064000D1F7B985BE5FB987B03209F0BECFF501E9
:10065000408351836283738384017301B3E01695F1
:100660000795F794E794BA95D1F7248135814681AF
:10067000578190E04E010894811C911CBE016B5F74
:100680007F4FEE2DE170EE0F822F8170E80F5695AF
:1006900047953795279516950795F794E794F0E0D9
:1006A000D401AE0FBF1F8C918BB9E60FF71F80816D
:1006B00085B98BB183298BB99F5F933011F7D50131
:1006C00014962D933D934D935C93179729960FB6EF
:1006D000F894DEBF0FBECDBFCF91DF911F910F9178
:1006E000FF90EF90DF90CF90BF90AF909F908F9052
:1006F0007F906F905F904F903F900895CF92DF92E0
:10070000EF92FF920F931F93DF93CF93CDB7DEB796
:100710002C970FB6F894DEBF0FBECDBFFC01498306
:100720005A836B837C830D831E832F833887C9860E
:10073000DA86EB86FC868081BE016F5F7F4F80FF8B
:1007400004C0CF010E94190203C0CF010E94EC0037
:100750002C960FB6F894DEBF0FBECDBFCF91DF91C0
:100760001F910F91FF90EF90DF90CF9008950F931E
:100770001F93CF93DF93EC01862F188269834B83FD
:100780002C830A8361E00E9414088B8161E00E943F
:1007900014088C8161E00E9414088A8161E00E9443
:1007A00014088B8160E00E9434088C8160E00E9414
:1007B000340800E010E0CE0141E050E060E070E07D
:1007C0000E948C00898161E00E943408CE0141E0E2
:1007D00050E060E070E00E948C00898160E00E943F
:1007E00034080F5F1F4F0532110529F7DF91CF91B4
:1007F0001F910F910895FC0182818F3F19F070E0E5
:100800000E94BB0708952F923F924F925F926F9282
:100810007F928F929F92AF92BF92CF92DF92EF9290
:10082000FF920F931F93DF93CF93CDB7DEB72D9732
:100830000FB6F894DEBF0FBECDBF3C0188249924CB
:1008400054019C012E5F3F4F3B872A87D3018D9136
:100850009C914FEF5FEF6FEF7FEF0FEF1FEF2FEFE9
:100860003FEFEFEFCE2ED12CE12CF12C0E947E0336
:10087000EA85FB85808191814FEF5FEF6FEF7FEF1E
:100880000FEF1FEF2FEF3FEF0E947E0380910001DB
:1008900061E00E943408C501B4010E945707D301EA
:1008A0008D919C9140E050E060E070E000E010E04D
:1008B00020E030E0CC24DD2476010E947E03EA852E
:1008C000FB858081918140E050E060E070E000E0D5
:1008D00010E020E030E00E947E038091000160E0A3
:1008E0000E94340864EF71E080E090E00E945707B6
:1008F0002AEF30E040E050E0820E931EA41EB51EA9
:1009000032EE831634E0930630E0A30630E0B306FF
:1009100009F09CCF14E6812E912CA12CB12CB1E0D2
:100920002B2E312C412C512C98C0D3018D919C91B0
:10093000A20191010C8404C0220F331F441F551FD4
:100940000A94D2F72E833F83488759873C853D839D
:10095000303240F4CC24DD24760100E010E020E0C9
:1009600030E01BC092018101098004C0000F111FFB
:10097000221F331F0A94D2F74D81403420F4CC2437
:10098000DD2476010AC0720161010B8004C0CC0C29
:10099000DD1CEE1CFF1C0A94D2F74E815F81688536
:1009A00079850E947E03AA85BB858D919C91BD812E
:1009B000B03240F4CC24DD24760100E010E020E0E9
:1009C00030E01BC092018101098004C0000F111F9B
:1009D000221F331F0A94D2F7ED81E03420F4CC2497
:1009E000DD2476010AC0720161010B8004C0CC0CC9
:1009F000DD1CEE1CFF1C0A94D2F74E815F816885D6
:100A000079850E947E03C501B4010E9457072C8599
:100A10003D852F5F3F4F3D872C874B815C814F5F2A
:100A20005F4F5C834B8389819A8101969A83898386
:100A30002634310509F079CF2CEE3FEF4FEF5FEF11
:100A4000820E931EA41EB51E3CEE83163FEF930646
:100A50003FEFA3063FEFB30659F01D861C8640EC1E
:100A60005FEF5C834B8380EE9FEF9A8389835DCF3A
:100A7000D3018D919C914FEF5FEF6FEF7FEF0FEF01
:100A80001FEF2FEF3FEFAFEFCA2ED12CE12CF12C4F
:100A90000E947E03F301828193814FEF5FEF6FEF3E
:100AA0007FEF0FEF1FEF2FEF3FEF0E947E0368EE07
:100AB00073E080E090E00E945707EE24FF241E2D93
:100AC000D3018D919C916E2D0E94FB031095EA85B8
:100AD000FB8580819181612F0E94FB036AE070E0B9
:100AE00080E090E00E9457070894E11CF11CF0E0C0
:100AF000EF16F1E0FF0619F7FFEFEF2EF12C1E2D98
:100B0000D3018D919C916E2D0E94FB031095EA8577
:100B1000FB8580819181612F0E94FB036AE070E078
:100B200080E090E00E9457070894E108F108FFEF89
:100B3000EF16FFEFFF0619F7D3018D919C916FEF30
:100B40000E94FB032D960FB6F894DEBF0FBECDBFFB
:100B5000CF91DF911F910F91FF90EF90DF90CF9099
:100B6000BF90AF909F908F907F906F905F904F90CD
:100B70003F902F900895CF92DF92EF92FF920F93C4
:100B8000DF93CF93CDB7DEB72E970FB6F894DEBFC5
:100B90000FBECDBFA5E0EA2EF12CEC0EFD1EC70165
:100BA00062E043E028E00BE00E94B703FAE0CF2EBA
:100BB000D12CCC0EDD1EC60165E046E027E00AE040
:100BC0000E94B703FA82E982DC82CB82C7016FEF11
:100BD0000E94FB038B819C816FEF0E94FB03CE017F
:100BE00001960E9403042E960FB6F894DEBF0FBE46
:100BF000CDBFCF91DF910F91FF90EF90DF90CF901D
:100C000008950E9481070E94BB05FDCF1F920F929D
:100C10000FB60F9211242F933F934F935F936F93CF
:100C20007F938F939F93AF93BF93EF93FF934091E5
:100C3000C600E0918801F0918901CF01019660E83A
:100C400070E00E94A0089C0180918A0190918B0124
:100C50002817390739F0E85FFE4F40833093890148
:100C600020938801FF91EF91BF91AF919F918F9158
:100C70007F916F915F914F913F912F910F900FBE98
:100C80000F901F901895FC01A085B18521898C914A
:100C900090E0022E02C0959587950A94E2F780FFB6
:100CA000F6CF0484F585E02D6083089586E091E019
:100CB00090938D0180938C0188E091E090938F0157
:100CC00080938E0185EC90E0909391018093900148
:100CD00084EC90E0909393018093920180EC90E0FB
:100CE000909395018093940181EC90E0909397010B
:100CF0008093960186EC90E09093990180939801FF
:100D000084E080939A0183E080939B0187E0809345
:100D10009C0185E080939D0108951F920F920FB66C
:100D20000F9211242F933F934F935F936F937F9371
:100D30008F939F93AF93BF93EF93FF9380919E0107
:100D400090919F01892B29F0E0919E01F0919F01E4
:100D50000995FF91EF91BF91AF919F918F917F91F5
:100D60006F915F914F913F912F910F900FBE0F9018
:100D70001F9018951F920F920FB60F9211242F9368
:100D80003F934F935F936F937F938F939F93AF9313
:100D9000BF93EF93FF938091A0019091A101892BC4
:100DA00029F0E091A001F091A1010995FF91EF9147
:100DB000BF91AF919F918F917F916F915F914F9173
:100DC0003F912F910F900FBE0F901F9018951F927B
:100DD0000F920FB60F9211242F938F939F93AF937F
:100DE000BF938091A2019091A301A091A401B09121
:100DF000A5010196A11DB11D8093A2019093A301AD
:100E0000A093A401B093A5018091A6019091A701A0
:100E1000A091A801B091A9018050904CAF4FBF4F55
:100E20008093A6019093A701A093A801B093A90174
:100E300027C08091A6019091A701A091A801B0912F
:100E4000A90180589E43A040B0408093A601909392
:100E5000A701A093A801B093A9018091AA01909144
:100E6000AB01A091AC01B091AD010196A11DB11DE6
:100E70008093AA019093AB01A093AC01B093AD0114
:100E80008091A6019091A701A091A801B091A9011C
:100E900081589E43A040B04060F6BF91AF919F91B2
:100EA0008F912F910F900FBE0F901F901895EF927A
:100EB000FF920F931F937B018C018FB7F8944091A1
:100EC000AA015091AB016091AC017091AD018FBF4F
:100ED0002FB7F8948091AA019091AB01A091AC0139
:100EE000B091AD012FBF841B950BA60BB70BE81675
:100EF000F9060A071B0760F71F910F91FF90EF900B
:100F00000895789484B5826084BD84B5816084BD81
:100F100085B5826085BD85B5816085BDEEE6F0E072
:100F2000808181608083E1E8F0E08081826080835D
:100F3000808181608083E0E8F0E08081816080834F
:100F4000E1EBF0E0808184608083E0EBF0E0808181
:100F500081608083EAE7F0E0808184608083808123
:100F600082608083808181608083808180688083CB
:100F70001092C10008951F93CF93DF93182FEB01B8
:100F800061E00E941408E12FF0E0E255FF4F8491E8
:100F9000833051F480918000806880938000D093EA
:100FA0008900C09388003CC0843051F48091800057
:100FB000806280938000D0938B00C0938A0030C001
:100FC000813039F4209729F184B5806884BDC7BD8C
:100FD00027C0823039F42097E1F084B5806284BD67
:100FE000C8BD1EC0863041F48091B00080688093F7
:100FF000B000C093B30014C0873041F48091B000BA
:1010000080628093B000C093B4000AC0C038D1059C
:101010001CF4812F60E002C0812F61E00E9434083F
:10102000DF91CF911F910895282F30E0C901865696
:101030009F4FFC0194912A573F4FF90184918823D7
:1010400091F0E82FF0E0EE0FFF1FE859FF4FA59158
:10105000B491662329F48C91909589238C930895FB
:101060008C91892B8C930895482F50E0CA018255AA
:101070009F4FFC012491CA0186569F4FFC01949119
:101080004A575F4FFA0134913323D1F1222331F1D2
:10109000233021F4809180008F7705C0243031F413
:1010A000809180008F7D8093800018C0213019F4DA
:1010B00084B58F7704C0223021F484B58F7D84BD40
:1010C0000DC0263021F48091B0008F7705C0273005
:1010D00029F48091B0008F7D8093B000E32FF0E081
:1010E000EE0FFF1FEE58FF4FA591B491662329F430
:1010F0008C91909589238C9308958C91892B8C9356
:101100000895629FD001739FF001829FE00DF11D51
:10111000649FE00DF11D929FF00D839FF00D749F71
:10112000F00D659FF00D9927729FB00DE11DF91F1D
:10113000639FB00DE11DF91FBD01CF01112408957A
:1011400097FB092E07260AD077FD04D02ED006D0B3
:1011500000201AF4709561957F4F0895F6F79095E9
:1011600081959F4F0895A1E21A2EAA1BBB1BFD017A
:101170000DC0AA1FBB1FEE1FFF1FA217B307E40776
:10118000F50720F0A21BB30BE40BF50B661F771FCE
:10119000881F991F1A9469F76095709580959095AE
:1011A0009B01AC01BD01CF010895AA1BBB1B51E1FE
:1011B00007C0AA1FBB1FA617B70710F0A61BB70BC7
:1011C000881F991F5A95A9F780959095BC01CD016C
:1011D0000895EE0FFF1F0590F491E02D0994F89407
:0211E000FFCF3F
:0811E2000D00000000004306AF
:00000001FF
